:100000000EC01DC01CC01BC01AC019C018C017C02C
:1000100016C015C014C013C013C011C010C01124E5
:100020001FBECFE5D2E0DEBFCDBF10E0A0E6B0E05E
:1000300001C01D92A336B107E1F7CFD2D4C3E0CF00
:100040001895F894A89598E10FB6F89491BD11BC55
:100050000FBE962F9870990F990F962B14BE28E11A
:1000600021BD977F906491BD78948823F9F095B76E
:10007000977E906195BF90B59F6090BDA89595B70C
:10008000906295BF95B7906295BF889595B79F7D13
:1000900095BF95B79F7D95BF0FB6F89421BD11BC54
:1000A0000FBE90B5907F90BD8150DFCF0895823014
:1000B0009105A9F044F4009709F1019751F5B99A17
:1000C000BC9ABB9822C08430910589F064F00597F2
:1000D00001F5BB9ABC9AB998C198C39814C0BB9A51
:1000E000B99ABC9812C0BB9AB99ABC9803C0BB9A83
:1000F000BC9AB998C198C498C39A0895B99ABC9A01
:10010000BB98C398C198C49A0895C398C498C19ADB
:10011000089587B3857E87BB88B3857E88BB0895A5
:100120000F931F93CF93DF9300D000D0CDB7DEB7EE
:100130008C01CB01BA0120E137E240E050E0D3D29C
:10014000B901CA0120E137E240E050E0A8D2211510
:10015000310541055105F1F0C80129833A834B83EC
:100160005C83A5DF87EE93E00197F1F700C0000004
:100170008FEF9FEF9CDFE7E3FAE43197F1F700C0E0
:10018000000029813A814B815C812150310941096C
:100190005109DDCF0F900F900F900F90DF91CF910D
:1001A0001F910F910895B89A83E88ABD82E083BFBA
:1001B00080E889BD08951ABCB8980895BF92CF927F
:1001C000DF92EF92FF920F931F93CF93DF9300D0B4
:1001D0001F92CDB7DEB782E0898381E08A838B836B
:1001E00000E010E083E0C82ED12CDDDFC801B601AD
:1001F0002FD27C01B12C81E090E08C0F9D1FE80E86
:10020000F91EF7018081B81648F443E250E060E03F
:1002100070E080E090E084DFB394F3CFCCDFFFE7C1
:1002200028E381E0F15020408040E1F700C0000069
:100230000F5F1F4F0B301105C1F60F900F900F90FD
:10024000DF91CF911F910F91FF90EF90DF90CF90B2
:10025000BF900895C298BA9AB299FECF8AE18A9562
:10026000F1F700C0BA9881E080BFC29A1FBCB29B70
:10027000FECF8FB510BE08B602FC02C090E005C0EC
:1002800088B7846088BF8FEF90E0C29808952F925E
:100290003F924F925F926F927F928F929F92AF9216
:1002A000BF92CF92DF92EF92FF920F931F93CF9363
:1002B000DF9300D000D0CDB7DEB7809162008130EF
:1002C00009F0B3C054EFE52EFF24F39465E0762ED9
:1002D000612C00E010E0C80165E070E0CDD16C0158
:1002E000009729F47A944AEEE42EFF24F394F694CE
:1002F000E794812C912C54013AEE232E332433942D
:10030000412C512C2E183F0841085108C114D1042A
:10031000B1F0C501B40122E330E040E050E0BFD1CC
:10032000672B682B692B59F4611004C07A946624FA
:10033000639405C0739421E0C21AD108612C1C8219
:100340001B82272D30E03A83298389819A812B8172
:100350003C81821B930BABDE3B8131111EC080E0E0
:1003600090E08E159F0531F0E2E0EA95F1F700C0CC
:100370000196F7CF8FEF9FEF9ADE80E090E0AC011F
:1003800060E070E0421553056405750578F4F2E00D
:10039000FA95F1F700C00196F2CF87EE93E001974E
:1003A000F1F700C000008FEF9FEF81DEEFEEF7E086
:1003B0003197F1F700C000002B813C812F5F3F4F48
:1003C0003C832B832630310509F0BFCF35E68316F9
:1003D0009104A104B10470F03DDF209160003091E0
:1003E00061002817390730F484E08093620009E146
:1003F00010E00DC08FEF881A980AA80AB80A90E793
:10040000891697E19906A104B10409F07FCF0F5F27
:100410001F4F093111050CF45ECF809162008430CA
:1004200021F083E080936200C9DE80916200833016
:1004300079F5C12CD12C760141E350E060E070E009
:1004400085E090E06DDE65E081E0FBDDE6E0CE1664
:10045000D104E104F10460F0FDDE209160003091F0
:1004600061002817390720F484E0809362000CC0F3
:10047000FFEFCF1ADF0AEF0AFF0A2CE2C21621E0D3
:10048000D206E104F104C1F680916200843049F59E
:1004900080916200843009F04EC0C12CD12C7601CD
:1004A0009CE3892E912CA12CB12C44E650E060E015
:1004B00070E085E090E034DEC701B601A50194014B
:1004C000EED06B3371058105910519F465E081E08B
:1004D000B8DDC0DE20916000309161002817390737
:1004E000D0F481E0809362000F900F900F900F90F6
:1004F000DF91CF911F910F91FF90EF90DF90CF9000
:10050000BF90AF909F908F907F906F905F904F9033
:100510003F902F9008953FEFC31AD30AE30AF30ADE
:100520008CE2C81681E0D806E104F10409F0BDCFE1
:1005300081E0809362000F900F900F900F90DF91F9
:10054000CF911F910F91FF90EF90DF90CF90BF90D0
:10055000AF909F908F907F906F905F904F903F9063
:100560002F902CCE0F931F93CF93DF938FE19EE4B8
:100570000197F1F700C0000008E010E0C0E0D0E013
:1005800069DEC80FD91F0150110901151105C1F706
:1005900073E0D695C7957A95E1F7CE0102978D3F26
:1005A000910590F005E010E042E350E060E070E07B
:1005B00083E090E0B5DD65E081E043DD01501109A5
:1005C0000115110589F703C0CE01029601C0CE01C5
:1005D000DF91CF911F910F91089581E08093620088
:1005E000C1DF9093610080936000C0E0D0E006E03E
:1005F00010E08091600090916100C817D907F0F475
:10060000CE01B80125D04AE050E060E070E088DD1E
:100610008FE19EE40197F1F700C00000C630D105DC
:1006200040F018DE209160003091610028173907F2
:1006300028F02196DECF65E081E003DD0BDE20911E
:1006400060003091610028173907A8F720DEF3CF4A
:10065000AA1BBB1B51E107C0AA1FBB1FA617B707E8
:1006600010F0A61BB70B881F991F5A95A9F7809504
:100670009095BC01CD01089597FB072E16F40094C8
:1006800006D077FD08D0E4DF07FC05D03EF4909556
:1006900081959F4F0895709561957F4F0895A1E2D0
:1006A0001A2EAA1BBB1BFD010DC0AA1FBB1FEE1FEC
:1006B000FF1FA217B307E407F50720F0A21BB30B37
:1006C000E40BF50B661F771F881F991F1A9469F7B3
:1006D00060957095809590959B01AC01BD01CF010F
:1006E000089568940010E894A0E0B0E0E9E7F3E032
:1006F0001DC0EFEFE7F959016A015E23550FEE08BF
:10070000FE2C87019B01AC019E23990F660B762F6F
:10071000CB013BD0CDB7DEB7EAE024C02F923F92A9
:100720004F925F926F927F928F929F92AF92BF9201
:10073000CF92DF92EF92FF920F931F93CF93DF93AD
:10074000CDB7DEB7CA1BDB0B0FB6F894DEBF0FBE0A
:10075000CDBF09942A88398848885F846E847D8457
:100760008C849B84AA84B984C884DF80EE80FD8059
:100770000C811B81AA81B981CE0FD11D0FB6F894CF
:10078000DEBF0FBECDBFED010895DF93CF939F92E3
:10079000A0E49A2E0024D001E001F00116950795FF
:1007A000F794E794D794C794B794A79448F4106843
:1007B000A20FB31FC41FD51FE61FF71F081E191E67
:1007C000220F331F441F551F661F771F881F991F55
:1007D0009A9421F79D01AE01BF01C00111249F90A1
:0A07E000CF91DF910895F894FFCF48
:00000001FF
